{
  "contractName": "RealEstate",
  "abi": [
    {
      "inputs": [
        {
          "internalType": "string",
          "name": "_location",
          "type": "string"
        },
        {
          "internalType": "uint256",
          "name": "_price",
          "type": "uint256"
        }
      ],
      "stateMutability": "nonpayable",
      "type": "constructor"
    },
    {
      "anonymous": false,
      "inputs": [
        {
          "indexed": true,
          "internalType": "bytes32",
          "name": "id",
          "type": "bytes32"
        }
      ],
      "name": "ChainlinkCancelled",
      "type": "event"
    },
    {
      "anonymous": false,
      "inputs": [
        {
          "indexed": true,
          "internalType": "bytes32",
          "name": "id",
          "type": "bytes32"
        }
      ],
      "name": "ChainlinkFulfilled",
      "type": "event"
    },
    {
      "anonymous": false,
      "inputs": [
        {
          "indexed": true,
          "internalType": "bytes32",
          "name": "id",
          "type": "bytes32"
        }
      ],
      "name": "ChainlinkRequested",
      "type": "event"
    },
    {
      "inputs": [],
      "name": "property",
      "outputs": [
        {
          "internalType": "address",
          "name": "owner",
          "type": "address"
        },
        {
          "internalType": "string",
          "name": "location",
          "type": "string"
        },
        {
          "internalType": "uint256",
          "name": "price",
          "type": "uint256"
        },
        {
          "internalType": "bool",
          "name": "isSold",
          "type": "bool"
        }
      ],
      "stateMutability": "view",
      "type": "function"
    },
    {
      "inputs": [
        {
          "internalType": "uint256",
          "name": "",
          "type": "uint256"
        }
      ],
      "name": "transactions",
      "outputs": [
        {
          "internalType": "address",
          "name": "buyer",
          "type": "address"
        },
        {
          "internalType": "address",
          "name": "seller",
          "type": "address"
        },
        {
          "internalType": "uint256",
          "name": "price",
          "type": "uint256"
        },
        {
          "internalType": "uint256",
          "name": "timestamp",
          "type": "uint256"
        }
      ],
      "stateMutability": "view",
      "type": "function"
    },
    {
      "inputs": [],
      "name": "buyProperty",
      "outputs": [],
      "stateMutability": "payable",
      "type": "function"
    },
    {
      "inputs": [],
      "name": "getTransactionsCount",
      "outputs": [
        {
          "internalType": "uint256",
          "name": "",
          "type": "uint256"
        }
      ],
      "stateMutability": "view",
      "type": "function"
    },
    {
      "inputs": [],
      "name": "getAllTransactions",
      "outputs": [
        {
          "components": [
            {
              "internalType": "address",
              "name": "buyer",
              "type": "address"
            },
            {
              "internalType": "address",
              "name": "seller",
              "type": "address"
            },
            {
              "internalType": "uint256",
              "name": "price",
              "type": "uint256"
            },
            {
              "internalType": "uint256",
              "name": "timestamp",
              "type": "uint256"
            }
          ],
          "internalType": "struct RealEstate.Transaction[]",
          "name": "",
          "type": "tuple[]"
        }
      ],
      "stateMutability": "view",
      "type": "function"
    },
    {
      "inputs": [
        {
          "internalType": "address",
          "name": "_oracle",
          "type": "address"
        },
        {
          "internalType": "string",
          "name": "_jobId",
          "type": "string"
        },
        {
          "internalType": "uint256",
          "name": "_payment",
          "type": "uint256"
        }
      ],
      "name": "requestPriceData",
      "outputs": [],
      "stateMutability": "nonpayable",
      "type": "function"
    },
    {
      "inputs": [
        {
          "internalType": "bytes32",
          "name": "_requestId",
          "type": "bytes32"
        },
        {
          "internalType": "uint256",
          "name": "_price",
          "type": "uint256"
        }
      ],
      "name": "fulfill",
      "outputs": [],
      "stateMutability": "nonpayable",
      "type": "function"
    }
  ],
  "bytecode": "0x608060405260016004553480156200001657600080fd5b5060405162001b6e38038062001b6e83398181016040528101906200003c91906200038b565b60405180608001604052803373ffffffffffffffffffffffffffffffffffffffff16815260200183815260200182815260200160001515815250600660008201518160000160006101000a81548173ffffffffffffffffffffffffffffffffffffffff021916908373ffffffffffffffffffffffffffffffffffffffff1602179055506020820151816001019080519060200190620000dd9291906200020f565b506040820151816002015560608201518160030160006101000a81548160ff0219169083151502179055509050506200011b6200012360201b60201c565b505062000588565b620001c973c89bd4e1632d3a43cb03aaad5262cbe4038bc57173ffffffffffffffffffffffffffffffffffffffff166338cc48316040518163ffffffff1660e01b815260040160206040518083038186803b1580156200018257600080fd5b505afa15801562000197573d6000803e3d6000fd5b505050506040513d601f19601f82011682018060405250810190620001bd91906200035f565b620001cb60201b60201c565b565b80600260006101000a81548173ffffffffffffffffffffffffffffffffffffffff021916908373ffffffffffffffffffffffffffffffffffffffff16021790555050565b8280546200021d90620004c0565b90600052602060002090601f0160209004810192826200024157600085556200028d565b82601f106200025c57805160ff19168380011785556200028d565b828001600101855582156200028d579182015b828111156200028c5782518255916020019190600101906200026f565b5b5090506200029c9190620002a0565b5090565b5b80821115620002bb576000816000905550600101620002a1565b5090565b6000620002d6620002d08462000419565b620003e5565b905082815260208101848484011115620002ef57600080fd5b620002fc8482856200048a565b509392505050565b600081519050620003158162000554565b92915050565b600082601f8301126200032d57600080fd5b81516200033f848260208601620002bf565b91505092915050565b60008151905062000359816200056e565b92915050565b6000602082840312156200037257600080fd5b6000620003828482850162000304565b91505092915050565b600080604083850312156200039f57600080fd5b600083015167ffffffffffffffff811115620003ba57600080fd5b620003c8858286016200031b565b9250506020620003db8582860162000348565b9150509250929050565b6000604051905081810181811067ffffffffffffffff821117156200040f576200040e62000525565b5b8060405250919050565b600067ffffffffffffffff82111562000437576200043662000525565b5b601f19601f8301169050602081019050919050565b6000620004598262000460565b9050919050565b600073ffffffffffffffffffffffffffffffffffffffff82169050919050565b6000819050919050565b60005b83811015620004aa5780820151818401526020810190506200048d565b83811115620004ba576000848401525b50505050565b60006002820490506001821680620004d957607f821691505b60208210811415620004f057620004ef620004f6565b5b50919050565b7f4e487b7100000000000000000000000000000000000000000000000000000000600052602260045260246000fd5b7f4e487b7100000000000000000000000000000000000000000000000000000000600052604160045260246000fd5b6200055f816200044c565b81146200056b57600080fd5b50565b620005798162000480565b81146200058557600080fd5b50565b6115d680620005986000396000f3fe6080604052600436106100705760003560e01c80634357855e1161004e5780634357855e146100f7578063451a308f14610120578063578cb8f91461012a5780639ace38c21461015557610070565b8063176fd3f01461007557806327506f53146100a3578063339df4b2146100ce575b600080fd5b34801561008157600080fd5b5061008a610195565b60405161009a949392919061100d565b60405180910390f35b3480156100af57600080fd5b506100b8610268565b6040516100c5919061111c565b60405180910390f35b3480156100da57600080fd5b506100f560048036038101906100f09190610c07565b610387565b005b34801561010357600080fd5b5061011e60048036038101906101199190610c97565b6103b7565b005b6101286104cb565b005b34801561013657600080fd5b5061013f610652565b60405161014c919061117e565b60405180910390f35b34801561016157600080fd5b5061017c60048036038101906101779190610cd3565b61065f565b60405161018c9493929190610fc8565b60405180910390f35b60068060000160009054906101000a900473ffffffffffffffffffffffffffffffffffffffff16908060010180546101cc906113d9565b80601f01602080910402602001604051908101604052809291908181526020018280546101f8906113d9565b80156102455780601f1061021a57610100808354040283529160200191610245565b820191906000526020600020905b81548152906001019060200180831161022857829003601f168201915b5050505050908060020154908060030160009054906101000a900460ff16905084565b6060600a805480602002602001604051908101604052809291908181526020016000905b8282101561037e57838290600052602060002090600402016040518060800160405290816000820160009054906101000a900473ffffffffffffffffffffffffffffffffffffffff1673ffffffffffffffffffffffffffffffffffffffff1673ffffffffffffffffffffffffffffffffffffffff1681526020016001820160009054906101000a900473ffffffffffffffffffffffffffffffffffffffff1673ffffffffffffffffffffffffffffffffffffffff1673ffffffffffffffffffffffffffffffffffffffff168152602001600282015481526020016003820154815250508152602001906001019061028c565b50505050905090565b60006103a3610395846106df565b30634357855e60e01b610709565b90506103b084828461073a565b5050505050565b816005600082815260200190815260200160002060009054906101000a900473ffffffffffffffffffffffffffffffffffffffff1673ffffffffffffffffffffffffffffffffffffffff163373ffffffffffffffffffffffffffffffffffffffff1614610459576040517f08c379a00000000000000000000000000000000000000000000000000000000081526004016104509061115e565b60405180910390fd5b6005600082815260200190815260200160002060006101000a81549073ffffffffffffffffffffffffffffffffffffffff0219169055807f7cc135e0cebb02c3480ae5d74d377283180a2601f8f644edf7987b009316c63a60405160405180910390a281600660020181905550505050565b600a60405180608001604052803373ffffffffffffffffffffffffffffffffffffffff168152602001600660000160009054906101000a900473ffffffffffffffffffffffffffffffffffffffff1673ffffffffffffffffffffffffffffffffffffffff16815260200134815260200142815250908060018154018082558091505060019003906000526020600020906004020160009091909190915060008201518160000160006101000a81548173ffffffffffffffffffffffffffffffffffffffff021916908373ffffffffffffffffffffffffffffffffffffffff16021790555060208201518160010160006101000a81548173ffffffffffffffffffffffffffffffffffffffff021916908373ffffffffffffffffffffffffffffffffffffffff1602179055506040820151816002015560608201518160030155505033600660000160006101000a81548173ffffffffffffffffffffffffffffffffffffffff021916908373ffffffffffffffffffffffffffffffffffffffff160217905550565b6000600a80549050905090565b600a818154811061066f57600080fd5b90600052602060002090600402016000915090508060000160009054906101000a900473ffffffffffffffffffffffffffffffffffffffff16908060010160009054906101000a900473ffffffffffffffffffffffffffffffffffffffff16908060020154908060030154905084565b6000808290506000815114156106fb576000801b915050610704565b60208301519150505b919050565b610711610ac4565b610719610ac4565b61073085858584610806909392919063ffffffff16565b9150509392505050565b600080600454905060018161074f919061126b565b6004819055506000634042994660e01b60008087600001513089604001518760018c6080015160000151604051602401610790989796959493929190611059565b604051602081830303815290604052907bffffffffffffffffffffffffffffffffffffffffffffffffffffffff19166020820180517bffffffffffffffffffffffffffffffffffffffffffffffffffffffff838183161783525050505090506107fb868386846108b6565b925050509392505050565b61080e610ac4565b61081e8560800151610100610a5a565b508385600001818152505082856020019073ffffffffffffffffffffffffffffffffffffffff16908173ffffffffffffffffffffffffffffffffffffffff16815250508185604001907bffffffffffffffffffffffffffffffffffffffffffffffffffffffff191690817bffffffffffffffffffffffffffffffffffffffffffffffffffffffff191681525050849050949350505050565b600030846040516020016108cb929190610f9c565b604051602081830303815290604052805190602001209050846005600083815260200190815260200160002060006101000a81548173ffffffffffffffffffffffffffffffffffffffff021916908373ffffffffffffffffffffffffffffffffffffffff160217905550807fb5e6e01e79f91267dc17b4e6314d5d4d03593d2ceee0fbb452b750bd70ea5af960405160405180910390a2600260009054906101000a900473ffffffffffffffffffffffffffffffffffffffff1673ffffffffffffffffffffffffffffffffffffffff16634000aea08685856040518463ffffffff1660e01b81526004016109c1939291906110de565b602060405180830381600087803b1580156109db57600080fd5b505af11580156109ef573d6000803e3d6000fd5b505050506040513d601f19601f82011682018060405250810190610a139190610c6e565b610a52576040517f08c379a0000000000000000000000000000000000000000000000000000000008152600401610a499061113e565b60405180910390fd5b949350505050565b610a62610b31565b6000602083610a719190611439565b14610a9d57602082610a839190611439565b6020610a8f91906112c1565b82610a9a919061126b565b91505b81836020018181525050604051808452600081528281016020016040525082905092915050565b6040518060a0016040528060008019168152602001600073ffffffffffffffffffffffffffffffffffffffff16815260200160007bffffffffffffffffffffffffffffffffffffffffffffffffffffffff1916815260200160008152602001610b2b610b31565b81525090565b604051806040016040528060608152602001600081525090565b6000610b5e610b59846111ca565b611199565b905082815260208101848484011115610b7657600080fd5b610b81848285611397565b509392505050565b600081359050610b9881611544565b92915050565b600081519050610bad8161155b565b92915050565b600081359050610bc281611572565b92915050565b600082601f830112610bd957600080fd5b8135610be9848260208601610b4b565b91505092915050565b600081359050610c0181611589565b92915050565b600080600060608486031215610c1c57600080fd5b6000610c2a86828701610b89565b935050602084013567ffffffffffffffff811115610c4757600080fd5b610c5386828701610bc8565b9250506040610c6486828701610bf2565b9150509250925092565b600060208284031215610c8057600080fd5b6000610c8e84828501610b9e565b91505092915050565b60008060408385031215610caa57600080fd5b6000610cb885828601610bb3565b9250506020610cc985828601610bf2565b9150509250929050565b600060208284031215610ce557600080fd5b6000610cf384828501610bf2565b91505092915050565b6000610d088383610f12565b60808301905092915050565b610d1d816112f5565b82525050565b610d2c816112f5565b82525050565b6000610d3d8261120a565b610d478185611238565b9350610d52836111fa565b8060005b83811015610d83578151610d6a8882610cfc565b9750610d758361122b565b925050600181019050610d56565b5085935050505092915050565b610d9981611307565b82525050565b610da881611313565b82525050565b610db78161131d565b82525050565b6000610dc882611215565b610dd28185611249565b9350610de28185602086016113a6565b610deb81611526565b840191505092915050565b610e07610e0282611373565b61140b565b82525050565b6000610e1882611220565b610e22818561125a565b9350610e328185602086016113a6565b610e3b81611526565b840191505092915050565b6000610e5360238361125a565b91507f756e61626c6520746f207472616e73666572416e6443616c6c20746f206f726160008301527f636c6500000000000000000000000000000000000000000000000000000000006020830152604082019050919050565b6000610eb960288361125a565b91507f536f75726365206d75737420626520746865206f7261636c65206f662074686560008301527f20726571756573740000000000000000000000000000000000000000000000006020830152604082019050919050565b608082016000820151610f286000850182610d14565b506020820151610f3b6020850182610d14565b506040820151610f4e6040850182610f67565b506060820151610f616060850182610f67565b50505050565b610f7081611369565b82525050565b610f7f81611369565b82525050565b610f96610f9182611369565b61142f565b82525050565b6000610fa88285610df6565b601482019150610fb88284610f85565b6020820191508190509392505050565b6000608082019050610fdd6000830187610d23565b610fea6020830186610d23565b610ff76040830185610f76565b6110046060830184610f76565b95945050505050565b60006080820190506110226000830187610d23565b81810360208301526110348186610e0d565b90506110436040830185610f76565b6110506060830184610d90565b95945050505050565b60006101008201905061106f600083018b610d23565b61107c602083018a610f76565b6110896040830189610d9f565b6110966060830188610d23565b6110a36080830187610dae565b6110b060a0830186610f76565b6110bd60c0830185610f76565b81810360e08301526110cf8184610dbd565b90509998505050505050505050565b60006060820190506110f36000830186610d23565b6111006020830185610f76565b81810360408301526111128184610dbd565b9050949350505050565b600060208201905081810360008301526111368184610d32565b905092915050565b6000602082019050818103600083015261115781610e46565b9050919050565b6000602082019050818103600083015261117781610eac565b9050919050565b60006020820190506111936000830184610f76565b92915050565b6000604051905081810181811067ffffffffffffffff821117156111c0576111bf6114f7565b5b8060405250919050565b600067ffffffffffffffff8211156111e5576111e46114f7565b5b601f19601f8301169050602081019050919050565b6000819050602082019050919050565b600081519050919050565b600081519050919050565b600081519050919050565b6000602082019050919050565b600082825260208201905092915050565b600082825260208201905092915050565b600082825260208201905092915050565b600061127682611369565b915061128183611369565b9250827fffffffffffffffffffffffffffffffffffffffffffffffffffffffffffffffff038211156112b6576112b561146a565b5b828201905092915050565b60006112cc82611369565b91506112d783611369565b9250828210156112ea576112e961146a565b5b828203905092915050565b600061130082611349565b9050919050565b60008115159050919050565b6000819050919050565b60007fffffffff0000000000000000000000000000000000000000000000000000000082169050919050565b600073ffffffffffffffffffffffffffffffffffffffff82169050919050565b6000819050919050565b600061137e82611385565b9050919050565b600061139082611349565b9050919050565b82818337600083830152505050565b60005b838110156113c45780820151818401526020810190506113a9565b838111156113d3576000848401525b50505050565b600060028204905060018216806113f157607f821691505b60208210811415611405576114046114c8565b5b50919050565b60006114168261141d565b9050919050565b600061142882611537565b9050919050565b6000819050919050565b600061144482611369565b915061144f83611369565b92508261145f5761145e611499565b5b828206905092915050565b7f4e487b7100000000000000000000000000000000000000000000000000000000600052601160045260246000fd5b7f4e487b7100000000000000000000000000000000000000000000000000000000600052601260045260246000fd5b7f4e487b7100000000000000000000000000000000000000000000000000000000600052602260045260246000fd5b7f4e487b7100000000000000000000000000000000000000000000000000000000600052604160045260246000fd5b6000601f19601f8301169050919050565b60008160601b9050919050565b61154d816112f5565b811461155857600080fd5b50565b61156481611307565b811461156f57600080fd5b50565b61157b81611313565b811461158657600080fd5b50565b61159281611369565b811461159d57600080fd5b5056fea2646970667358221220aaf6e52790cde2ec492e87ca7653e53fa400a85abc9946dfa04b4e2b5c303de164736f6c63430008000033",
  "immutableReferences": {},
  "source": "pragma solidity ^0.8.0;\n\nimport \"@chainlink/contracts/src/v0.8/ChainlinkClient.sol\";\n\ncontract RealEstate is ChainlinkClient {\n    struct Property {\n        address owner;\n        string location;\n        uint256 price;\n        bool isSold;\n    }\n\n    struct Transaction {\n        address buyer;\n        address seller;\n        uint256 price;\n        uint256 timestamp;\n    }\n\n    Property public property;\n    Transaction[] public transactions;\n\n    constructor(string memory _location, uint256 _price) {\n        property = Property(msg.sender, _location, _price, false);\n        _setPublicChainlinkToken();\n    }\n\n    function buyProperty() public payable {\n        transactions.push(Transaction(msg.sender, property.owner, msg.value, block.timestamp));\n        property.owner = msg.sender;\n    }\n\n    function getTransactionsCount() public view returns (uint256) {\n        return transactions.length;\n    }\n\n    function getAllTransactions() public view returns (Transaction[] memory) {\n        return transactions;\n    }\n\n    function requestPriceData(address _oracle, string memory _jobId, uint256 _payment) public {\n        Chainlink.Request memory req = _buildChainlinkRequest(stringToBytes32(_jobId), address(this), this.fulfill.selector);\n        _sendChainlinkRequestTo(_oracle, req, _payment);\n    }\n\n    function fulfill(bytes32 _requestId, uint256 _price) public recordChainlinkFulfillment(_requestId) {\n        property.price = _price;\n    }\n\n    function stringToBytes32(string memory source) private pure returns (bytes32 result) {\n        bytes memory tempEmptyStringTest = bytes(source);\n        if (tempEmptyStringTest.length == 0) {\n            return 0x0;\n        }\n        assembly {\n            result := mload(add(source, 32))\n        }\n    }\n}",
  "sourcePath": "/home/hungnguyen30/Documents/GitHub/Housing-Connector/smart-contract/contracts/APIConsumer.sol",
  "compiler": {
    "name": "solc",
    "version": "0.8.0+commit.c7dfd78e.Emscripten.clang"
  },
  "schemaVersion": "3.4.16",
  "updatedAt": "2024-04-06T18:19:52.735Z",
  "devdoc": {
    "kind": "dev",
    "methods": {},
    "version": 1
  },
  "userdoc": {
    "kind": "user",
    "methods": {},
    "version": 1
  }
}